{
  "contractName": "CommunityRewards",
  "abi": [
    {
      "inputs": [
        {
          "internalType": "contract IERC20",
          "name": "token",
          "type": "address"
        }
      ],
      "stateMutability": "nonpayable",
      "type": "constructor"
    },
    {
      "anonymous": false,
      "inputs": [
        {
          "indexed": true,
          "internalType": "address",
          "name": "previousOwner",
          "type": "address"
        },
        {
          "indexed": true,
          "internalType": "address",
          "name": "newOwner",
          "type": "address"
        }
      ],
      "name": "OwnershipTransferred",
      "type": "event"
    },
    {
      "inputs": [],
      "name": "owner",
      "outputs": [
        {
          "internalType": "address",
          "name": "",
          "type": "address"
        }
      ],
      "stateMutability": "view",
      "type": "function",
      "constant": true
    },
    {
      "inputs": [],
      "name": "renounceOwnership",
      "outputs": [],
      "stateMutability": "nonpayable",
      "type": "function"
    },
    {
      "inputs": [
        {
          "internalType": "address",
          "name": "",
          "type": "address"
        }
      ],
      "name": "rewardsInfoByToken",
      "outputs": [
        {
          "internalType": "address",
          "name": "rewardsToken",
          "type": "address"
        },
        {
          "internalType": "uint256",
          "name": "rewardsAmount",
          "type": "uint256"
        }
      ],
      "stateMutability": "view",
      "type": "function",
      "constant": true
    },
    {
      "inputs": [
        {
          "internalType": "address",
          "name": "newOwner",
          "type": "address"
        }
      ],
      "name": "transferOwnership",
      "outputs": [],
      "stateMutability": "nonpayable",
      "type": "function"
    },
    {
      "inputs": [],
      "name": "token",
      "outputs": [
        {
          "internalType": "contract IERC20",
          "name": "",
          "type": "address"
        }
      ],
      "stateMutability": "view",
      "type": "function",
      "constant": true
    },
    {
      "inputs": [
        {
          "internalType": "address",
          "name": "rewardsToken",
          "type": "address"
        },
        {
          "internalType": "uint256",
          "name": "rewardsAmount",
          "type": "uint256"
        }
      ],
      "name": "updateRewardsAmount",
      "outputs": [],
      "stateMutability": "nonpayable",
      "type": "function"
    },
    {
      "inputs": [
        {
          "components": [
            {
              "internalType": "address",
              "name": "token",
              "type": "address"
            },
            {
              "internalType": "uint256",
              "name": "amount",
              "type": "uint256"
            }
          ],
          "internalType": "struct CommunityRewards.ReportInfo[]",
          "name": "list",
          "type": "tuple[]"
        }
      ],
      "name": "updateRewardsList",
      "outputs": [],
      "stateMutability": "nonpayable",
      "type": "function"
    },
    {
      "inputs": [
        {
          "internalType": "address",
          "name": "rewardsToken",
          "type": "address"
        },
        {
          "internalType": "uint256",
          "name": "claimAmount",
          "type": "uint256"
        }
      ],
      "name": "claimByAdmin",
      "outputs": [],
      "stateMutability": "nonpayable",
      "type": "function"
    },
    {
      "inputs": [
        {
          "internalType": "uint256",
          "name": "claimAmount",
          "type": "uint256"
        }
      ],
      "name": "claim",
      "outputs": [],
      "stateMutability": "nonpayable",
      "type": "function"
    },
    {
      "inputs": [
        {
          "internalType": "address payable",
          "name": "recipientToken",
          "type": "address"
        }
      ],
      "name": "killSelf",
      "outputs": [],
      "stateMutability": "nonpayable",
      "type": "function"
    }
  ],
  "bytecode": "0x60806040523480156200001157600080fd5b5060405162002011380380620020118339818101604052810190620000379190620001c1565b600062000049620001a260201b60201c565b9050806000806101000a81548173ffffffffffffffffffffffffffffffffffffffff021916908373ffffffffffffffffffffffffffffffffffffffff1602179055508073ffffffffffffffffffffffffffffffffffffffff16600073ffffffffffffffffffffffffffffffffffffffff167f8be0079c531659141344cd1fd0a4f28419497f9722a3daafe3b4186f6b6457e060405160405180910390a350600073ffffffffffffffffffffffffffffffffffffffff168173ffffffffffffffffffffffffffffffffffffffff1614156200015a576040517f08c379a000000000000000000000000000000000000000000000000000000000815260040162000151906200022f565b60405180910390fd5b80600160006101000a81548173ffffffffffffffffffffffffffffffffffffffff021916908373ffffffffffffffffffffffffffffffffffffffff16021790555050620002c4565b600033905090565b600081519050620001bb81620002aa565b92915050565b600060208284031215620001d457600080fd5b6000620001e484828501620001aa565b91505092915050565b6000620001fc60198362000251565b91507f746f6b656e20697320746865207a65726f2061646472657373000000000000006000830152602082019050919050565b600060208201905081810360008301526200024a81620001ed565b9050919050565b600082825260208201905092915050565b60006200026f826200028a565b9050919050565b6000620002838262000262565b9050919050565b600073ffffffffffffffffffffffffffffffffffffffff82169050919050565b620002b58162000276565b8114620002c157600080fd5b50565b611d3d80620002d46000396000f3fe608060405234801561001057600080fd5b506004361061009e5760003560e01c80638da5cb5b116100665780638da5cb5b1461011d578063a047b4191461013b578063b61fc2711461016c578063f2fde38b14610188578063fc0c546a146101a45761009e565b80630c0254bf146100a35780630d59655b146100bf578063379607f5146100db5780633a507d7d146100f7578063715018a614610113575b600080fd5b6100bd60048036038101906100b891906114e3565b6101c2565b005b6100d960048036038101906100d491906114e3565b610265565b005b6100f560048036038101906100f09190611589565b61051a565b005b610111600480360381019061010c91906114ba565b610527565b005b61011b6106d1565b005b610125610824565b60405161013291906119a1565b60405180910390f35b61015560048036038101906101509190611491565b61084d565b6040516101639291906119bc565b60405180910390f35b6101866004803603810190610181919061151f565b610891565b005b6101a2600480360381019061019d9190611491565b6109c6565b005b6101ac610b88565b6040516101b991906119e5565b60405180910390f35b6101ca610bb2565b73ffffffffffffffffffffffffffffffffffffffff1660008054906101000a900473ffffffffffffffffffffffffffffffffffffffff1673ffffffffffffffffffffffffffffffffffffffff1614610257576040517f08c379a000000000000000000000000000000000000000000000000000000000815260040161024e90611aa2565b60405180910390fd5b6102618282610bba565b5050565b61026d610bb2565b73ffffffffffffffffffffffffffffffffffffffff1660008054906101000a900473ffffffffffffffffffffffffffffffffffffffff1673ffffffffffffffffffffffffffffffffffffffff16146102fa576040517f08c379a00000000000000000000000000000000000000000000000000000000081526004016102f190611aa2565b60405180910390fd5b600073ffffffffffffffffffffffffffffffffffffffff168273ffffffffffffffffffffffffffffffffffffffff16141561036a576040517f08c379a000000000000000000000000000000000000000000000000000000000815260040161036190611ac2565b60405180910390fd5b600081116103ad576040517f08c379a00000000000000000000000000000000000000000000000000000000081526004016103a490611b42565b60405180910390fd5b6000600260008473ffffffffffffffffffffffffffffffffffffffff1673ffffffffffffffffffffffffffffffffffffffff1681526020019081526020016000209050600073ffffffffffffffffffffffffffffffffffffffff168160000160009054906101000a900473ffffffffffffffffffffffffffffffffffffffff1673ffffffffffffffffffffffffffffffffffffffff161461045657818160010181905550610515565b60405180604001604052808473ffffffffffffffffffffffffffffffffffffffff16815260200183815250600260008573ffffffffffffffffffffffffffffffffffffffff1673ffffffffffffffffffffffffffffffffffffffff16815260200190815260200160002060008201518160000160006101000a81548173ffffffffffffffffffffffffffffffffffffffff021916908373ffffffffffffffffffffffffffffffffffffffff160217905550602082015181600101559050505b505050565b6105243382610bba565b50565b61052f610bb2565b73ffffffffffffffffffffffffffffffffffffffff1660008054906101000a900473ffffffffffffffffffffffffffffffffffffffff1673ffffffffffffffffffffffffffffffffffffffff16146105bc576040517f08c379a00000000000000000000000000000000000000000000000000000000081526004016105b390611aa2565b60405180910390fd5b6000600160009054906101000a900473ffffffffffffffffffffffffffffffffffffffff1673ffffffffffffffffffffffffffffffffffffffff166370a08231306040518263ffffffff1660e01b815260040161061991906119a1565b60206040518083038186803b15801561063157600080fd5b505afa158015610645573d6000803e3d6000fd5b505050506040513d601f19601f8201168201806040525081019061066991906115b2565b90506106b88282600160009054906101000a900473ffffffffffffffffffffffffffffffffffffffff1673ffffffffffffffffffffffffffffffffffffffff16610daf9092919063ffffffff16565b8173ffffffffffffffffffffffffffffffffffffffff16ff5b6106d9610bb2565b73ffffffffffffffffffffffffffffffffffffffff1660008054906101000a900473ffffffffffffffffffffffffffffffffffffffff1673ffffffffffffffffffffffffffffffffffffffff1614610766576040517f08c379a000000000000000000000000000000000000000000000000000000000815260040161075d90611aa2565b60405180910390fd5b600073ffffffffffffffffffffffffffffffffffffffff1660008054906101000a900473ffffffffffffffffffffffffffffffffffffffff1673ffffffffffffffffffffffffffffffffffffffff167f8be0079c531659141344cd1fd0a4f28419497f9722a3daafe3b4186f6b6457e060405160405180910390a360008060006101000a81548173ffffffffffffffffffffffffffffffffffffffff021916908373ffffffffffffffffffffffffffffffffffffffff160217905550565b60008060009054906101000a900473ffffffffffffffffffffffffffffffffffffffff16905090565b60026020528060005260406000206000915090508060000160009054906101000a900473ffffffffffffffffffffffffffffffffffffffff16908060010154905082565b610899610bb2565b73ffffffffffffffffffffffffffffffffffffffff1660008054906101000a900473ffffffffffffffffffffffffffffffffffffffff1673ffffffffffffffffffffffffffffffffffffffff1614610926576040517f08c379a000000000000000000000000000000000000000000000000000000000815260040161091d90611aa2565b60405180910390fd5b600081511161096a576040517f08c379a000000000000000000000000000000000000000000000000000000000815260040161096190611a22565b60405180910390fd5b60005b81518110156109c25761097e611329565b82828151811061098a57fe5b602002602001015190506000816020015111156109b4576109b381600001518260200151610e35565b5b50808060010191505061096d565b5050565b6109ce610bb2565b73ffffffffffffffffffffffffffffffffffffffff1660008054906101000a900473ffffffffffffffffffffffffffffffffffffffff1673ffffffffffffffffffffffffffffffffffffffff1614610a5b576040517f08c379a0000000000000000000000000000000000000000000000000000000008152600401610a5290611aa2565b60405180910390fd5b600073ffffffffffffffffffffffffffffffffffffffff168173ffffffffffffffffffffffffffffffffffffffff161415610acb576040517f08c379a0000000000000000000000000000000000000000000000000000000008152600401610ac290611a42565b60405180910390fd5b8073ffffffffffffffffffffffffffffffffffffffff1660008054906101000a900473ffffffffffffffffffffffffffffffffffffffff1673ffffffffffffffffffffffffffffffffffffffff167f8be0079c531659141344cd1fd0a4f28419497f9722a3daafe3b4186f6b6457e060405160405180910390a3806000806101000a81548173ffffffffffffffffffffffffffffffffffffffff021916908373ffffffffffffffffffffffffffffffffffffffff16021790555050565b6000600160009054906101000a900473ffffffffffffffffffffffffffffffffffffffff16905090565b600033905090565b600073ffffffffffffffffffffffffffffffffffffffff168273ffffffffffffffffffffffffffffffffffffffff161415610c2a576040517f08c379a0000000000000000000000000000000000000000000000000000000008152600401610c2190611ac2565b60405180910390fd5b6000600260008473ffffffffffffffffffffffffffffffffffffffff1673ffffffffffffffffffffffffffffffffffffffff168152602001908152602001600020905060008211610cb0576040517f08c379a0000000000000000000000000000000000000000000000000000000008152600401610ca790611b42565b60405180910390fd5b6000816001015411610cf7576040517f08c379a0000000000000000000000000000000000000000000000000000000008152600401610cee90611b42565b60405180910390fd5b8060010154821115610d3e576040517f08c379a0000000000000000000000000000000000000000000000000000000008152600401610d3590611b02565b60405180910390fd5b610d8b8383600160009054906101000a900473ffffffffffffffffffffffffffffffffffffffff1673ffffffffffffffffffffffffffffffffffffffff16610daf9092919063ffffffff16565b610da2828260010154610fc190919063ffffffff16565b8160010181905550505050565b610e308363a9059cbb60e01b8484604051602401610dce9291906119bc565b604051602081830303815290604052907bffffffffffffffffffffffffffffffffffffffffffffffffffffffff19166020820180517bffffffffffffffffffffffffffffffffffffffffffffffffffffffff838183161783525050505061100b565b505050565b6012600a0a810290506000600260008473ffffffffffffffffffffffffffffffffffffffff1673ffffffffffffffffffffffffffffffffffffffff1681526020019081526020016000209050600073ffffffffffffffffffffffffffffffffffffffff168160000160009054906101000a900473ffffffffffffffffffffffffffffffffffffffff1673ffffffffffffffffffffffffffffffffffffffff1614610efd57610ef08282600101546110d290919063ffffffff16565b8160010181905550610fbc565b60405180604001604052808473ffffffffffffffffffffffffffffffffffffffff16815260200183815250600260008573ffffffffffffffffffffffffffffffffffffffff1673ffffffffffffffffffffffffffffffffffffffff16815260200190815260200160002060008201518160000160006101000a81548173ffffffffffffffffffffffffffffffffffffffff021916908373ffffffffffffffffffffffffffffffffffffffff160217905550602082015181600101559050505b505050565b600061100383836040518060400160405280601e81526020017f536166654d6174683a207375627472616374696f6e206f766572666c6f770000815250611127565b905092915050565b606061106d826040518060400160405280602081526020017f5361666545524332303a206c6f772d6c6576656c2063616c6c206661696c65648152508573ffffffffffffffffffffffffffffffffffffffff166111829092919063ffffffff16565b90506000815111156110cd578080602001905181019061108d9190611560565b6110cc576040517f08c379a00000000000000000000000000000000000000000000000000000000081526004016110c390611b22565b60405180910390fd5b5b505050565b60008082840190508381101561111d576040517f08c379a000000000000000000000000000000000000000000000000000000000815260040161111490611a62565b60405180910390fd5b8091505092915050565b600083831115829061116f576040517f08c379a00000000000000000000000000000000000000000000000000000000081526004016111669190611a00565b60405180910390fd5b5060008385039050809150509392505050565b6060611191848460008561119a565b90509392505050565b6060824710156111df576040517f08c379a00000000000000000000000000000000000000000000000000000000081526004016111d690611a82565b60405180910390fd5b6111e8856112af565b611227576040517f08c379a000000000000000000000000000000000000000000000000000000000815260040161121e90611ae2565b60405180910390fd5b600060608673ffffffffffffffffffffffffffffffffffffffff168587604051611251919061198a565b60006040518083038185875af1925050503d806000811461128e576040519150601f19603f3d011682016040523d82523d6000602084013e611293565b606091505b50915091506112a38282866112c2565b92505050949350505050565b600080823b905060008111915050919050565b606083156112d257829050611322565b6000835111156112e55782518084602001fd5b816040517f08c379a00000000000000000000000000000000000000000000000000000000081526004016113199190611a00565b60405180910390fd5b9392505050565b6040518060400160405280600073ffffffffffffffffffffffffffffffffffffffff168152602001600081525090565b60008135905061136881611cab565b92915050565b60008135905061137d81611cc2565b92915050565b600082601f83011261139457600080fd5b81356113a76113a282611b8f565b611b62565b915081818352602084019350602081019050838560408402820111156113cc57600080fd5b60005b838110156113fc57816113e2888261141b565b8452602084019350604083019250506001810190506113cf565b5050505092915050565b60008151905061141581611cd9565b92915050565b60006040828403121561142d57600080fd5b6114376040611b62565b9050600061144784828501611359565b600083015250602061145b84828501611467565b60208301525092915050565b60008135905061147681611cf0565b92915050565b60008151905061148b81611cf0565b92915050565b6000602082840312156114a357600080fd5b60006114b184828501611359565b91505092915050565b6000602082840312156114cc57600080fd5b60006114da8482850161136e565b91505092915050565b600080604083850312156114f657600080fd5b600061150485828601611359565b925050602061151585828601611467565b9150509250929050565b60006020828403121561153157600080fd5b600082013567ffffffffffffffff81111561154b57600080fd5b61155784828501611383565b91505092915050565b60006020828403121561157257600080fd5b600061158084828501611406565b91505092915050565b60006020828403121561159b57600080fd5b60006115a984828501611467565b91505092915050565b6000602082840312156115c457600080fd5b60006115d28482850161147c565b91505092915050565b6115e481611be9565b82525050565b60006115f582611bb7565b6115ff8185611bcd565b935061160f818560208601611c67565b80840191505092915050565b61162481611c43565b82525050565b600061163582611bc2565b61163f8185611bd8565b935061164f818560208601611c67565b61165881611c9a565b840191505092915050565b6000611670601283611bd8565b91507f6c697374206172726179206973206e756c6c00000000000000000000000000006000830152602082019050919050565b60006116b0602683611bd8565b91507f4f776e61626c653a206e6577206f776e657220697320746865207a65726f206160008301527f64647265737300000000000000000000000000000000000000000000000000006020830152604082019050919050565b6000611716601b83611bd8565b91507f536166654d6174683a206164646974696f6e206f766572666c6f7700000000006000830152602082019050919050565b6000611756602683611bd8565b91507f416464726573733a20696e73756666696369656e742062616c616e636520666f60008301527f722063616c6c00000000000000000000000000000000000000000000000000006020830152604082019050919050565b60006117bc602083611bd8565b91507f4f776e61626c653a2063616c6c6572206973206e6f7420746865206f776e65726000830152602082019050919050565b60006117fc601b83611bd8565b91507f636c61696d2066726f6d20746865207a65726f206164647265737300000000006000830152602082019050919050565b600061183c601d83611bd8565b91507f416464726573733a2063616c6c20746f206e6f6e2d636f6e74726163740000006000830152602082019050919050565b600061187c602983611bd8565b91507f746865207769746864726177616c20616d6f756e74206578636565647320746860008301527f652062616c616e636500000000000000000000000000000000000000000000006020830152604082019050919050565b60006118e2602a83611bd8565b91507f5361666545524332303a204552433230206f7065726174696f6e20646964206e60008301527f6f742073756363656564000000000000000000000000000000000000000000006020830152604082019050919050565b6000611948601383611bd8565b91507f7468652062616c616e6365206973207a65726f000000000000000000000000006000830152602082019050919050565b61198481611c39565b82525050565b600061199682846115ea565b915081905092915050565b60006020820190506119b660008301846115db565b92915050565b60006040820190506119d160008301856115db565b6119de602083018461197b565b9392505050565b60006020820190506119fa600083018461161b565b92915050565b60006020820190508181036000830152611a1a818461162a565b905092915050565b60006020820190508181036000830152611a3b81611663565b9050919050565b60006020820190508181036000830152611a5b816116a3565b9050919050565b60006020820190508181036000830152611a7b81611709565b9050919050565b60006020820190508181036000830152611a9b81611749565b9050919050565b60006020820190508181036000830152611abb816117af565b9050919050565b60006020820190508181036000830152611adb816117ef565b9050919050565b60006020820190508181036000830152611afb8161182f565b9050919050565b60006020820190508181036000830152611b1b8161186f565b9050919050565b60006020820190508181036000830152611b3b816118d5565b9050919050565b60006020820190508181036000830152611b5b8161193b565b9050919050565b6000604051905081810181811067ffffffffffffffff82111715611b8557600080fd5b8060405250919050565b600067ffffffffffffffff821115611ba657600080fd5b602082029050602081019050919050565b600081519050919050565b600081519050919050565b600081905092915050565b600082825260208201905092915050565b6000611bf482611c19565b9050919050565b6000611c0682611c19565b9050919050565b60008115159050919050565b600073ffffffffffffffffffffffffffffffffffffffff82169050919050565b6000819050919050565b6000611c4e82611c55565b9050919050565b6000611c6082611c19565b9050919050565b60005b83811015611c85578082015181840152602081019050611c6a565b83811115611c94576000848401525b50505050565b6000601f19601f8301169050919050565b611cb481611be9565b8114611cbf57600080fd5b50565b611ccb81611bfb565b8114611cd657600080fd5b50565b611ce281611c0d565b8114611ced57600080fd5b50565b611cf981611c39565b8114611d0457600080fd5b5056fea2646970667358221220c3d8f768a38071c40073783504261ab6ddb9e243f1368bdf2fc1235ff62eab2b64736f6c634300060c0033",
  "immutableReferences": {},
  "source": "// SPDX-License-Identifier: MIT\r\n\r\npragma solidity >=0.6.12 < 0.7.5;\r\npragma experimental ABIEncoderV2;\r\n\r\nimport \"@openzeppelin/contracts/access/Ownable.sol\";\r\nimport \"@openzeppelin/contracts/token/ERC20/IERC20.sol\";\r\nimport \"@openzeppelin/contracts/token/ERC20/SafeERC20.sol\";\r\nimport \"@openzeppelin/contracts/math/SafeMath.sol\";\r\n\r\ncontract CommunityRewards is Ownable {\r\n    using SafeMath for uint256;\r\n    using SafeERC20 for IERC20;\r\n\r\n    IERC20 private _token;\r\n\r\n    struct RewardsInfo {\r\n        address rewardsToken;\r\n        uint256 rewardsAmount;\r\n    }\r\n\r\n    struct ReportInfo {\r\n        address token;\r\n        uint256 amount;\r\n    }\r\n\r\n    mapping(address => RewardsInfo) public rewardsInfoByToken;\r\n\r\n    constructor(IERC20 token) Ownable() public {\r\n        require(address(token) != address(0), \"token is the zero address\");\r\n        _token = token;\r\n    }\r\n\r\n    function token() public view returns (IERC20) {\r\n        return _token;\r\n    }\r\n\r\n    /**\r\n     * @dev upload account rewardsAmount\r\n     * @param rewardsToken the token of rewards\r\n     * @param rewardsAmount the amount of update\r\n     */\r\n    function updateRewardsAmount(address rewardsToken, uint256 rewardsAmount) public onlyOwner {\r\n        // Not is 0x address\r\n        require(rewardsToken != address(0), 'claim from the zero address');\r\n        // the rewardsAmount must be gt zero\r\n        require(rewardsAmount > 0, 'the balance is zero');\r\n\r\n        RewardsInfo storage info = rewardsInfoByToken[rewardsToken];\r\n        if (info.rewardsToken != address(0)) {\r\n            info.rewardsAmount = rewardsAmount;\r\n        } else {\r\n            rewardsInfoByToken[rewardsToken] = RewardsInfo(rewardsToken, rewardsAmount);\r\n        }\r\n    }\r\n\r\n    /**\r\n     * @dev upload report to update rewards list data\r\n     * @param list upload data array\r\n     */\r\n    function updateRewardsList(ReportInfo[] memory list) public onlyOwner {\r\n        require(list.length > 0, \"list array is null\");\r\n        for (uint i = 0; i < list.length; i++) {\r\n            ReportInfo memory reportInfo = list[i];\r\n            if (reportInfo.amount > 0) {\r\n                _addRewardsTokens(reportInfo.token, reportInfo.amount);\r\n            }\r\n        }\r\n    }\r\n\r\n    /**\r\n     * @dev add rewards list data\r\n     * @param rewardsToken the token of rewards\r\n     * @param rewardsAmount the amount of update\r\n     */\r\n    function _addRewardsTokens(address rewardsToken, uint256 rewardsAmount) internal {\r\n        rewardsAmount = rewardsAmount * (10**uint256(18));\r\n        RewardsInfo storage info = rewardsInfoByToken[rewardsToken];\r\n        if (info.rewardsToken != address(0)) {\r\n            info.rewardsAmount = info.rewardsAmount.add(rewardsAmount);\r\n        } else {\r\n            rewardsInfoByToken[rewardsToken] = RewardsInfo(rewardsToken, rewardsAmount);\r\n        }\r\n    }\r\n\r\n    /**\r\n     * @dev admin claim\r\n     * @param rewardsToken the token of rewards\r\n     * @param claimAmount the amount of claim\r\n     */\r\n    function claimByAdmin(address rewardsToken, uint256 claimAmount) public onlyOwner {\r\n        _claim(rewardsToken, claimAmount);\r\n    }\r\n\r\n    /**\r\n     * @dev self claim\r\n     * @param claimAmount the amount of claim\r\n     */\r\n    function claim(uint256 claimAmount) public {\r\n        _claim(msg.sender, claimAmount);\r\n    }\r\n\r\n    /**\r\n     * @dev common claim function\r\n     * @param rewardsToken the token of rewards\r\n     * @param claimAmount the amount of claim\r\n     */\r\n    function _claim(address rewardsToken, uint256 claimAmount) internal {\r\n        // Not is 0x address\r\n        require(rewardsToken != address(0), 'claim from the zero address');\r\n        RewardsInfo storage info = rewardsInfoByToken[rewardsToken];\r\n        // the claimAmount must be gt zero\r\n        require(claimAmount > 0, 'the balance is zero');\r\n        // the balance must be gt zero\r\n        require(info.rewardsAmount > 0, 'the balance is zero');\r\n        // claimAmount must be lt or equal rewardsAmount\r\n        require(claimAmount <= info.rewardsAmount, 'the withdrawal amount exceeds the balance');\r\n\r\n        _token.safeTransfer(rewardsToken, claimAmount);\r\n        info.rewardsAmount = info.rewardsAmount.sub(claimAmount);\r\n    }\r\n\r\n    function killSelf(address payable recipientToken) public onlyOwner {\r\n        uint256 contractBalance = _token.balanceOf(address(this));\r\n        _token.safeTransfer(recipientToken, contractBalance);\r\n\r\n        selfdestruct(recipientToken);\r\n    }\r\n}\r\n",
  "sourcePath": "/home/blues/Workspaces/Daoswap/daoswap-tech/daoswap-community-rewards/contracts/CommunityRewards.sol",
  "compiler": {
    "name": "solc",
    "version": "0.6.12+commit.27d51765.Emscripten.clang"
  },
  "schemaVersion": "3.3.3",
  "updatedAt": "2021-01-03T07:33:31.822Z",
  "networkType": "ethereum",
  "devdoc": {
    "kind": "dev",
    "methods": {
      "claim(uint256)": {
        "details": "self claim",
        "params": {
          "claimAmount": "the amount of claim"
        }
      },
      "claimByAdmin(address,uint256)": {
        "details": "admin claim",
        "params": {
          "claimAmount": "the amount of claim",
          "rewardsToken": "the token of rewards"
        }
      },
      "owner()": {
        "details": "Returns the address of the current owner."
      },
      "renounceOwnership()": {
        "details": "Leaves the contract without owner. It will not be possible to call `onlyOwner` functions anymore. Can only be called by the current owner. NOTE: Renouncing ownership will leave the contract without an owner, thereby removing any functionality that is only available to the owner."
      },
      "transferOwnership(address)": {
        "details": "Transfers ownership of the contract to a new account (`newOwner`). Can only be called by the current owner."
      },
      "updateRewardsAmount(address,uint256)": {
        "details": "upload account rewardsAmount",
        "params": {
          "rewardsAmount": "the amount of update",
          "rewardsToken": "the token of rewards"
        }
      },
      "updateRewardsList((address,uint256)[])": {
        "details": "upload report to update rewards list data",
        "params": {
          "list": "upload data array"
        }
      }
    },
    "version": 1
  },
  "userdoc": {
    "kind": "user",
    "methods": {},
    "version": 1
  }
}